:040000006FC0D03EBF
:10000400B71402409305E0408CC483A20400370374
:100014000001B3E2620023A0540083A30400370E5E
:100024000002B3F3C301E38A03FE83AE8400370FF7
:100034000080B3EEEE0123A4D401894F23A2F4017E
:1000440003A94400A14933793901E30B09FE1705DB
:10005400EFDF1305A50A9705FFFF9385A5FA17D6C9
:10006400FFFF130666A963FAC5008322050023A0D7
:10007400550011059105E3EAC5FE17D5EFDF130519
:1000840025C097D5FFFF938525A717D6FFFF130635
:1000940026A763FAC5008322050023A05500110595
:1000A4009105E3EAC5FE17D5EFDF1305E5BD970516
:1000B400000093852505170600001306661663FAEB
:1000C400C5008322050023A0550011059105E3EA2C
:1000D400C5FE170500001305E51497550600938522
:1000E40065AB6377B500232005001105E36DB5FE0C
:0400F4008280000006
:1000F8000000000000000000380F10203E0F102004
:1001080000000000BC3910200000000000000000C2
:10011800BC391020BC39102000000000000000008D
:10012800BC391020BC391020BC3910200000000058
:10013800BC391020BC391020BC391020BC39102023
:1001480000000000000000000000000000000000A7
:100158000000000000000000000000000000000097
:10016800BC39102000000000000000000000000062
:10017800BC391020BC391020BC391020BC391020E3
:10018800BC391020BC391020BC391020BC391020D3
:10019800BC391020BC391020BC391020BC391020C3
:1001A800BC391020BC391020BC391020BC391020B3
:1001B800BC391020BC391020BC391020BC391020A3
:1001C800BC391020BC391020BC391020BC39102093
:1001D800BC3910205E651020BC391020BC391020B5
:1001E800BC391020BC391020BC391020BC39102073
:1001F800BC391020BC391020BC391020BC39102063
:10020800BC391020BC391020BC391020D45810201B
:10021800BC391020C8631020C0591020A05A1020E3
:100228008C5B1020785C1020BC391020BC39102061
:10023800BC391020BC391020BC391020BC39102022
:10024800BC391020BC391020BC391020445E102065
:10025800BC3910207C641020305F10201C601020F6
:10026800FC601020E8611020BC391020BC39102037
:10027800BC391020BC391020BC391020BC391020E2
:10028800645D1020864E1020BC391020BC39102027
:10029800BC391020BC391020BC391020BC391020C2
:1002A800BC391020BC391020BC391020BC391020B2
:1002B800BC391020BC391020BC391020BC391020A2
:1002C800BC391020BC391020BC391020BC39102092
:1002D800BC391020BC391020BC391020BC39102082
:1002E800BC391020BC39102000000000BC39102097
:1002F800BC3910200000000000000000BC391020AC
:100308000000000000000000BC391020BC3910209B
:10031800BC391020BC391020BC391020BC39102041
:10032800BC391020BC391020BC391020BC39102031
:10033800BC391020BC391020BC391020BC39102021
:10034800BC391020397101436EC619A03971415367
:100358006AC866CA62CC5ECE21A001003971015319
:100368005AD056D252D44ED64AD826DA22DC06DEE5
:10037800330161408282010041114AC026C222C471
:1003880006C68282B24D4101024D924C224CB24BBC
:1003980041010100024B924A224AB249410101003F
:1003A800024992442244B240410182802A8311C604
:1003B8002300B3007D16050365FE82802A8309CADF
:1003C80083830500230073007D16050385056DFAF8
:1003D800828017030000E70263FA37081120370705
:1003E80011208327882403274724411163F1E70854
:1003F800370711208326C724139617000567B2967E
:1004080083950600130707778E056357B7040567BA
:100418008D8513072748BA95617763D3E500BA85B8
:10042800216763C4E5009305F7FF2167BA95139721
:10043800C5009355070111453EC697500000E78057
:10044800E038B2473708112085072324F8244101F2
:1004580017030000670003F57D7713070789E3DDBD
:10046800E5FA7D778D851307E7B7BA9575B7856582
:1004780093850580114597500000E780203541019C
:1004880017030000670003F217030000E70203EFF9
:10049800B704112041111385843832893684979026
:1004A8000000E78060480DED1385843874002286CB
:1004B800CA8597900000E78000EF1DE13245636828
:1004C800850001454101170300006700A3ED3306CD
:1004D800A44081454A9597000000E78060EDD5B7B4
:1004E8007D55CDB7297113038112232C8110232444
:1004F800C1122A842326D1122E869A8608089305CB
:100508000010232E11102328E112232AF112232C84
:100518000113232E11131AC697A00000E78080C08C
:1005280008400C0897500000E780E0E28320C111E2
:10053800032481113161828017030000E702C3E0C0
:10054800370711208324C723B7F717202E8B85047C
:10055800232E972284DBB7F717200F00300388C3B8
:100568000F003003B707112023A60722B707112071
:1005780023AA0722B7F91720B7071120B70D1120B2
:1005880023A80D2223AC0722938949039750000022
:10059800E78020B603A7090037FA1720AA8A2A8914
:1005A800130A8A037D5DAD4B314CA94C6384E40486
:1005B80003240A0063038D0297500000E78060B3AC
:1005C80063027D07630B8D0563189D01330925417F
:1005D800B707112023AC27232A8997500000E7800A
:1005E80040B1330555416366AB0403A70900228D6A
:1005F800E390E4FC0F00300397500000E78060AF01
:1006080033055541370711202326A722B7F71720AE
:10061800885717030000670023D73309254123A80B
:100628002D235DBF33092541B707112023AA2723AE
:1006380065B7B7F7172037E700E003264778945FD8
:10064800B7B51020370511209385055313050525E7
:1006580097000000E78040E97D5517030000670018
:10066800A3D217030000E70263D1B7041120B7072C
:10067800112037061020916523A2A4249387477A76
:10068800370711202A841306262E938505E8054589
:10069800370911202326F724232409241180975091
:1006A8000000E780201B97500000E78080A4130417
:1006B800441F2A9401A897500000E78080A3018D69
:1006C8006349A0020327892483A74424E365F7FE2E
:1006D800054597500000E7800029856593850580CA
:1006E800114597500000E780600E1703000067006F
:1006F80063CB054597500000E780E0268565938524
:100708000580114597500000E780400C0326892496
:1007180083A64424B7B51020370511209385855545
:100728001305052597000000E78000DC170300008B
:10073800670043C717030000E70283C2130101DA09
:10074800131415004D468145AA891305D101970058
:100758000000E780E0C5B704112083A6842237D7BC
:10076800CCCCB75846461307D7CC93882895B7877B
:10077800EB519387F75146C6B3B8E602374356455F
:10078800377874201306440213037315130868D6C8
:10079800B7657461938545161ACA42CCB3B7F60299
:1007A80093D8380013538600135806012308C10054
:1007B8001396280046962ED80606918E9583B3B5D3
:1007C800E70223090101138806033709112011657F
:1007D80013090910130505E8930ED007A308610053
:1007E800094EB3B6E80213D73500131627003A9618
:1007F8000606918F2312A10213530401938707035E
:1008080028188D8213962600B29686063387D8401C
:1008180013070703C1488546CA852946A30901006D
:10082800231A8102A30B0102A304D1032306C103E7
:10083800230B61022303F900A303E9002304090140
:10084800230E1101230711032300D1022301D10232
:1008580097900000E780808739E56C003400130624
:10086800C002281897900000E78060D111E5224760
:100878009307C002630BF704B7B5102037051120A2
:10088800130505259385055997000000E780C0C525
:10089800281897900000E780A00413010126170389
:1008A8000000670063AFB7B51020370511209385A6
:1008B800C5571305052597000000E780E0C213011E
:1008C800012617030000670023ADB7051120228613
:1008D80034009385457A281897900000E78020CA4D
:1008E800224619E1630AC402B7B510203705112062
:1008F800A2869385455C1305052597000000E780CF
:10090800A0BE281897900000E78080FD13010126FB
:1009180017030000670043A8281897900000E78095
:1009280020FCB7B5102037051120CE864A8693855E
:10093800C55A1305052597000000E780E0BA83A78C
:100948008422850723A4F42289BF17030000E70245
:1009580023A137F41620930584E40146AA89972039
:100968000000E7806025631D0522130484E489677D
:100978003E9403244440630A04249304A00F63E9CB
:10098800840E93142400A294860437091120B70713
:100998001120B71517209386075B4E85938505258B
:1009A800228697300000E780A0FF37F71720B7F6B8
:1009B800162000C79386C62437F7172054C7B706F2
:1009C800172037F717209386C624B707112014CBB2
:1009D8009387075B37F717205CCB37F71320B7F7F8
:1009E80017201307872498CF37070300B7F7172076
:1009F800130707C0D8CF37471220B7F717201307B8
:100A0800870298D337071120B7F717201307477ABB
:100A1800D8D30F003003B7B51020130509259385E7
:100A2800C563A686228697000000E780E0ABF565DF
:100A38009385054C054597000000E78020B021CD3F
:100A4800954763EFA716B7C710200A05938787FB5A
:100A5800AA979043B7B510201305092593854566D5
:100A680097000000E78040A8170300006700C392C2
:100A7800B7B51020370911202286A6869385C5614F
:100A8800130509252684856497000000E780C0A522
:100A98009384449CEDBDB707112003A687239309CF
:100AA800803EB7B51020B306360313050925938594
:100AB8008567B3D6960297000000E780E0A2B707E3
:100AC800112003A64723B7B5102013050925B3063F
:100AD800360393858569B3D6960297000000E780B0
:100AE800A0A0B707112003A60723B7B51020130548
:100AF8000925B30636039385856BB3D6960297000E
:100B08000000E780609EB707112003A6C72293085C
:100B180040063788EB51B30716031308F851B7B5E9
:100B280010209385856D13050925B3D79702B30661
:100B3800360333579602B3D6960233B807031358D1
:100B4800580033081803B387074197000000E7806F
:100B5800A099931724003E9416042285970000005C
:100B6800E78080BD97400000E780A058AA842285CE
:100B780097000000E78020AF97400000E7806057AB
:100B8800B7B51020330695409385C5701305092520
:100B980097000000E780409517F3FFFF6700C37FC9
:100BA800B7B51020370511209385455F1305052536
:100BB80097000000E780409317F3FFFF6700C37DAD
:100BC80037B610201306C65E71B5B7B510203705C5
:100BD8001120938585601305052597000000E7809F
:100BE800A09017F3FFFF6700237B17F3FFFFE702CF
:100BF800237737091120130409250840F1659385E7
:100C0800052097400000E780C061B7B51020228515
:100C18008544938585742302940097000000E7803B
:100C2800A08CB7060400B7B51020368622859385B8
:100C3800457697000000E780208BB7F7172037E745
:100C480000E003264778D443B7B510202285938562
:100C5800857897000000E780208997300000E780BA
:100C6800E08563E9A41497600000E7808071630B56
:100C78000510ED659385B5543705050097300000DC
:100C8800E78060AD6317051637B4102037051120CB
:100C98009305C47E13058538054697800000E780D4
:100CA800E04263160516379712203796122037054B
:100CB8001020130787E41306862413058539930744
:100CC8000040D966814597000000E7800038631529
:100CD800051097000000E780A06EB7C510202A868F
:100CE800938545831305092597F0FFFFE780C07FAB
:100CF80097400000E780E03F3564B7F41720AA89E1
:100D080091041304E4AF19A897400000E780603EFF
:100D1800330535419307007D63EBA7109C40E395AD
:100D280087FE0F003003B7C51020130509259385EA
:100D3800858797F0FFFFE780207B85659385853859
:100D4800094597F0FFFFE780607F85642A84630286
:100D58000510B7F71720905F954763E0A71EB7C740
:100D6800102013142500938787FBA2979443B7C5D7
:100D78001020130509259385458897F0FFFFE78024
:100D8800A076B9A097600000E7802058E30305EE3D
:100D98006300951AB7B6102093868673B7B51020EE
:100DA8002A869385057C1305092597F0FFFFE780C0
:100DB800A07339A897300000E780A08EB7B510203F
:100DC8002A869385857A228597F0FFFFE780C07190
:100DD80017F3FFFF6700435CB7C510202A86938589
:100DE800058113050925D96697F0FFFFE780C06FD5
:100DF800C5B7B7B51020130509259385457D97F02C
:100E0800FFFFE780606E17F3FFFF6700E358B7B591
:100E180010201306C47E130509259385C57F97F016
:100E2800FFFFE780606C17F3FFFF6700E356B7E743
:100E380000E003A64778B7C5102013050925935687
:100E4800E6008D8A9385058597F0FFFFE780C069E6
:100E580041B7114597500000E7804085938504808D
:100E6800114597500000E7806096B7C5102013051C
:100E780009259385858A97F0FFFFE780E066B70626
:100E8800112037D5CCCC89659386467A1305D5CC05
:100E9800938505F4B337A40279771307070C050483
:100EA8009583858B81C70967130707F42390E600AC
:100EB8008906E311B4FE228597F0FFFFE780A07A48
:100EC800B7C51020B707112005479385458B130533
:100ED80009252380E72497F0FFFFE780E06037C506
:100EE80010201305C58D97000000E78040A637C580
:100EF80010201305459097000000E78040A537C5EE
:100F080010201305859197000000E78040A437C59D
:100F180010201305859397000000E78040A337C58C
:100F280010201305059597000000E78040A24DB5F5
:100F3800B7B610209386067295B5B7B6102093867B
:100F4800C65E35B517F3FFFFE7024343B707112025
:100F580083C70724A1CFB707112003A5072597400A
:100F68000000E780C045B707112011E91545973003
:100F78000000E780A0F117F3FFFF6700A34203A575
:100F88000725B70711209385872C1306000C974077
:100F98000000E7804048E35BA0FCB70711201385F9
:100FA800872C97000000E780809AC9B71305803E18
:100FB80097300000E78080ED17F3FFFF6700833E5E
:100FC8003707112083270722032647220545B385C3
:100FD800A700B3B6F500B2962320B7222322D72262
:100FE800D18F81EBB70711209387072588C3238208
:100FF800070082803707112083270722032647220C
:101008000545B385A700B3B6F500B2962320B722ED
:101018002322D722D18F81EBB70711209387072589
:1010280088C3238207008280411116C601A041119E
:101038003EC2B707EFBE3AC416C69387070837E71C
:1010480000E03CC701A065C517F3FFFFE702433185
:101058002E8937341720368AB289AA841306442C7D
:101068009306000281454A85BE8A3A8B829455E5EB
:101078001304442C1840B7474B3293870745631233
:10108800F70A5C44C9CF104459CA93162600636C0A
:10109800DA089307F01F63FA57090C484E864A8509
:1010A800829425ED08444C4C54480A053386A9001F
:1010B800370811208D8E37071120B70711202324F8
:1010C800C82636952320872823AE3727636DAA04C0
:1010D8004A85829439E103234401B708112037086F
:1010E8001120B705112037061120B7061120370740
:1010F8001120B707112023A66826232C082623AA27
:1011080095262328262723A266272320572723ACA2
:10111800072417F3FFFF670023287D55DDBF7155AE
:10112800CDBF7955FDB76D55EDB76955DDB77D551F
:101138008280B70F112083A70F28638F072683A308
:101148008700638B032617F3FFFFE7022323B70704
:10115800112003A48726B73E1720411113834E267A
:101168008142338F5340135F1F00169FA287014EA1
:1011780083C8070003C817009385270063FB081D71
:101188002E87B3071301330603018346070085073B
:101198000507A38FD7FEE31AF6FEB3870501B387C9
:1011A80017411A9823000800050EE373CFFD8387C3
:1011B8004E262A879A8691E779AA83870600638C48
:1011C80007180306070085060507E308F6FE93F7E8
:1011D800F70F1376F60F6350F618FA83E3E372F805
:1011E80063830216B707112083A7C727FD12139739
:1011F8002200BA9783C6170003C6070003C7270053
:1012080003C43700B707112083A84727A206D18E49
:1012180093170701D58F62042A885D8C63880818A4
:10122800B707112083A687253707112003264726ED
:1012380063980612B706112083A5C6263705112024
:10124800B706112083A6062603250527A29542C6C0
:1012580016C482986DE9370711203248A242032646
:101268004726B70611200547B7071120B73E1720B4
:1012780023AE862423ACE724B70F112013834E2610
:1012880079C203A70F285C47032F4700B382570290
:10129800330F5F4063F3E7013E8F63060F0A014E89
:1012A800B7321720B73F17208347160003450600BB
:1012B80093082600A207C98F93D557007D89A98373
:1012C800FD8993F3F7016372B5024687B307A3005C
:1012D8003306B3008346070085070507A38FD7FEAB
:1012E800E31AF6FE3385A540AA989A95238005004F
:1012F800638703021387422A3385E3004686938671
:101308004F28834706000507050693F5F7039983D9
:101318002380F600A30FB7FE8506E314E5FE838756
:101328004E26C2861A8791E7B5A883070700A1C38E
:101338008506038606000507E309F6FE050E3386D3
:101348007800E313CFF70145410117F3FFFF67006A
:101358006305AE87B9B593021F00E3E472E049B5AF
:10136800B706112083A6C625E316D4EC11BF8387E0
:101378001600E9F7B7371720B73617203737172081
:10138800938747259386462A1307472823A0670093
:1013980023867700D4C398C73E85410117F3FFFF22
:1013A8006700430083070800D1FBE9B7B70711209E
:1013B80003A687272296E9B501458280B707112041
:1013C80083A70728014591C3C84382808307050086
:1013D800A5C3AA870387170085076DFF3386A74033
:1013E8008386050091CEAE870387170085076DFFBA
:1013F8008D8F6374F6003A8582801D8EB307C50011
:101408000387070001EF158F133717003A8582808D
:101418000387070001CB8386150085058507E30947
:10142800D7FED5B783861500158F13371700F9BF78
:10143800AA87014675B717F3FFFFE70263F2A947CA
:101448004111AA8463FEB70AB7D8CCCC9388D8CC0C
:101458008146B3B71503368413B6A5008506330550
:10146800D100138806FF8D83139727003E97060740
:10147800998D93850503A30FB5FEBE8519E2E31A7E
:1014880008FCB7CA1020096A0A94938A8A0A269A1D
:101498001309F00283070400938707FD8A07D6978C
:1014A8008C4383870500A9CB2E8683071600050683
:1014B800EDFF83270A800D8E13B7070815CF0DCED1
:1014C800328B6374C900130BF002139517003E9515
:1014D800120526955A8697F0FFFFE78060EE0327EE
:1014E8000A8093171700BA979207A697DA9723806E
:1014F800070005072320EA80630B81067D1459BF86
:10150800B7C710208A059387870AAE978C438387CD
:101518000500B1CFAE870387170085076DFF096700
:101528002697032707808D8F93360708A9C2A1C382
:101538003E849307F00263F387003E841315170077
:101548003A9512052695228697F0FFFFE78040E737
:101558008966A69603A7068093171700BA9792077D
:10156800A697A29723800700050723A0E6804101DC
:1015780017F3FFFF670043E283870500ADCFAE870F
:101588000387170085076DFF09672A9703270780D8
:101598003386B7406381B70693370708A9CF17F397
:1015A800FFFFE702A3DD9307F002411163E6C704DA
:1015B800AA87131517003A9512053E953EC632C400
:1015C80097F0FFFFE780C0DFB24789652246BE95E6
:1015D80003A7058093161700BA9692063385D7009D
:1015E800329523000500050723A0E580410117F384
:1015F800FFFF670023DB82803E865DBF17F3FFFF96
:10160800E702C3D79307F00259712A8463F3C7002E
:101618003E86080832C497F0FFFFE78060DA22466A
:10162800030801010A962308060063080846B7C69E
:1016380010209386469CC28713063004180801A818
:10164800830707006386072A0386160085060507B1
:10165800E308F6FEB7C51020938545A26387C72621
:10166800B7C710209387C79CC28613067005180851
:1016780001A88306070063820624038617008507EE
:101688000507E308D6FEB7C710209387479D428712
:1016980013064004140801A803870600630D0724F5
:1016A8000386170085078506E308E6FEB7C5102000
:1016B800938545A3630BC720B7C610209386C69DA4
:1016C800C28713064004180801A883070700638728
:1016D80007220386160085060507E308F6FEB7C548
:1016E8001020938585A36382C71EB7C610209386F2
:1016F800469EC28713064004180801A883070700FE
:10170800638107200386160085060507E308F6FEB1
:10171800B7C51020938505A46389C71A37C7102059
:101728001307C79EC286130690041C0801A8838667
:101738000700638B061C0306170005078507E308E7
:10174800D6FE37C710201307479FC286130610041A
:101758001C0801A8838607006381061C030617007E
:1017680005078507E308D6FE37C710201307C79F6C
:10177800C286130670051C0801A8838607006387C4
:10178800061A0306170005078507E308D6FEB7C63D
:101798001020938646A0C28713067005180801A872
:1017A80083070700638D071803861600850605075B
:1017B800E308F6FEB7C51020938505A56387C71013
:1017C800B7C610209386C6A0C287130690041808CF
:1017D80001A8830707006387071603861600850696
:1017E8000507E308F6FE638BC726B7C61020938665
:1017F80006A1C28713069004180801A883070700EA
:10180800638507140386160085060507E308F6FEB8
:101818006389C726B7C61020938686A1C287130698
:101828009004180801A8830707006383071203863A
:10183800160085060507E308F6FE638AC72437C73E
:1018480010201307C7A1C286130690041C0801A81C
:1018580083860700638106100306170005078507BE
:10186800E308D6FEB7C51020938505A7080842C42B
:1018780097000000E780C0B565C91C0803871700FA
:1018880085076DFF1808998FF5171808BA97BA8554
:1018980022852380070097000000E78020CEB7C587
:1018A800102022859385C5A297000000E78000CD0F
:1018B800656117F3FFFF6700E3AE83871700E394C2
:1018C80007DCB7C510209385C5A2228597000000C4
:1018D800E780C0CAB7C510202285938585A29700E6
:1018E8000000E780A0C9656117F3FFFF670083ABBD
:1018F8000386160085B3038617004DBB03861600C2
:10190800F9BB0386160029B503061700E31B06E298
:10191800B7C51020938545A44DBF03061700E315EE
:1019280006E4B7C51020938585A445B703061700BC
:10193800E31F06E4B7C510209385C5A479B70386CD
:1019480016008DBD0386160079BD03861600C9B53D
:1019580003861600DDB58307170089F7B7C5102081
:10196800938585A5228505BFB7C51020938545A712
:10197800080897000000E780A0A55DE1B7C5102022
:10198800938585A7080897000000E78060A41C08D5
:1019980029ED2248B7C510209385C5A7080842C479
:1019A80097000000E780C0A22248630F0512630277
:1019B80008221C080387170085076DFF1808998FF0
:1019C800F9171808BA97BA85228523800700970067
:1019D8000000E780A0BAB7C510202285938585A6A8
:1019E80097000000E78080B9FDBD038717008507D1
:1019F8006DFF1808998FF5171808BA97BA852285C8
:101A08002380070097000000E78040B7B7C5102083
:101A18002285938505A697000000E78020B6E1B5EA
:101A28001C080387170085076DFF1808998F13870F
:101A3800D7FFBA871808BA97BA8522852380070086
:101A480097000000E78080B3B7C5102022859385F2
:101A580085A497000000E78060B271B5B7C5102073
:101A68002285938585A597000000E78020B1B7C53A
:101A7800102022859385C5A597000000E78000B057
:101A88009DB5B7C51020938585A52285A5BFB7C587
:101A98001020938585A522851DBFB7C51020938585
:101AA80005A7080842C497000000E7806092F55730
:101AB800E31D05DCB7C51020938545A708083EC679
:101AC80097000000E780C090324722483DF1B7C533
:101AD8001020938585A7080842C497000000E78076
:101AE800208FB24711F975B5B7C51020938505A8A1
:101AF800080842C497000000E780808D22481C082F
:101B080051EDE30208DE0387170085076DFF18080B
:101B1800B388E740E389E7DC0545198D01461308DA
:101B2800700283060700B307E50093050606130352
:101B38000101B3B717019A95638506012388D5FC7F
:101B48000506930616FDB336D000F58F0507F1FBA1
:101B5800096722978327078093B60708E38506D885
:101B6800E30306D8139517003E95120522958C00BD
:101B780032C43AC697F0FFFFE78080843247224696
:101B88008326078093971600B6979207A297B29775
:101B98002380070085062320D780B1B36306080099
:101BA8000387170085076DFF1808998FBA97BA85BC
:101BB8002285238F07FE97000000E780209CB7C589
:101BC80010202285938545A497000000E780009B9C
:101BD80019BBF957FDB317E3FFFFE702E3768967FF
:101BE800AE97B7CB1020397137CB102023A00780D0
:101BF8009387CBA9B7CA10203EC493074BA92E8A56
:101C08002A8C938A0AFD3EC68149814D814B814CBD
:101C1800130B200EB3063C01038906009374F90FD9
:101C2800938794FD1387E4F693B7170013371700CB
:101C380033E4E700638764059377F9FD9387F7FB3F
:101C480093F7F70F65476369F71A63940D0E9307C7
:101C5800E0028509814DE3EF97FB21E89387F4F9CA
:101C680093F7F70F65476367F700138904FE620966
:101C780013598941B3872C0023882701850C814D8E
:101C880051BF138D1900B307AC01838707006A861B
:101C980085C30387260021E709CC328D63930D0A9B
:101CA8009307E002EA89E3E797F713097002D9B7C7
:101CB80075F463980C0A63980D0091EC216117E3A1
:101CC800FFFF6700636CDE85528597F0FFFFE780B2
:101CD800C076814BE5D48509814D814C25BF93069B
:101CE80000F86384D7008D0935B71377F70F93078A
:101CF800870693F7F70F854663F4F60C9307D70624
:101D080093F7F70F93B7270081E71307A7F561FF4C
:101D180063930C0C639A0D0CB7C51020938545A8E6
:101D2800528597000000E78060858D09814D814CC0
:101D3800D5B5DE85528597F0FFFFE7800070814BAF
:101D480039B7DE85528597F0FFFFE780006F93076C
:101D5800E002EA8963F29707814D814B65BD63898B
:101D68000C0066860C08528597000000E7804089C1
:101D7800639B0D0459191379F90F93075003E3EE88
:101D880027F393172900D6979C438287B24552853B
:101D980097F0FFFFE780807E8509814D814C9DBDCE
:101DA800A245F5B7B7C51020938545A8CDB7B7C5E7
:101DB80010209385C5A8E1BF814B130970025DBD52
:101DC800138D3900E1BDDE85528597F0FFFFE7806E
:101DD800C066814B45B766860C085285970000009F
:101DE800E7800082E38A0DF2DE85528597F0FFFFD7
:101DF800E780A064814B0DB715EC938704FD93F73A
:101E0800F70F2547E36DF7F4639E0C0093972B00BB
:101E1800DE978607938707FDB30BF9008509854D83
:101E2800814CCDBB66860C08528597F0FFFFE78092
:101E3800207DE9BF13861900328D8DB50308050092
:101E4800AA856301080CB7C610209386C6A82A87FE
:101E5800C2871306C00339A083070700DDCB0386BA
:101E6800160085060507E309F6FE0545638DC708D4
:101E7800B7C71020938747A8C2862E871306C003CA
:101E880039A083060700C9C203861700850705071E
:101E9800E309D6FEB7C71020938747A9C2862E87C5
:101EA8001306C00339A083060700BDC603861700C2
:101EB80085070507E309D6FEB7C610209386C6A98D
:101EC800C2872E871306C00339A083070700B1CB4A
:101ED8000386160085060507E309F6FE05456384B3
:101EE800C702B7C710209387C7AE1307C00301A85E
:101EF80003880500630D0802038717008507850519
:101F0800E30807FF01458280838717000545D9F359
:101F180082800386160091BF03861700054549FE97
:101F28008280038616000545E39DC7FA82800385F3
:101F3800170013351500828017E3FFFFE7024342BD
:101F480037CE1020838E0500130E8E201D71B284AB
:101F58002A8F3689930F8E0B13031004638B0E029E
:101F680003280E00F6882E8501A8830805006380E3
:101F780008020303180005080505E38868FE110E2A
:101F88006383CF4103280E0003030800E1BF030366
:101F98001800630A0300110E6387CF3F03250E0064
:101FA8000303050065BF054411667A96835686408B
:101FB80037051120C1652314D516FD156386B600B3
:101FC800938516002314B640D5CB038E0700630A09
:101FD8000E06B7C81020938848A972883E85130357
:101FE800C00301A8030805006301083A0383180029
:101FF80085080505E30868FEB7C510209385C5A9BF
:1020080072863E851308C00301A803060500630213
:1020180006360388150085050505E30806FF37C65B
:1020280010201306C6AEBE851305C00301A8038E93
:10203800050063050E440305160005068505E3083B
:10204800AEFE6304044437061120872606181306DB
:102058000004636FE602A6853A8608103ECE7ACC65
:1020680036EA36C83AC697E0FFFFE7806035F247A0
:10207800624FD266C2463247041019A8630B043E69
:10208800370611208726061913060004E375E6FCB7
:102098003706112007208619370611208725861B49
:1020A800370611208721461B370611200725461AB7
:1020B800370611208720861A370611200722061AAC
:1020C800370611200721C619896337061120814573
:1020D8000726C61BFA939309F01F6386E5160326A5
:1020E8000F4063E1C92283C804000348090033058F
:1020F800CF00230015010506230005212320CF402A
:10210800014699C7138625003336E60013361600B4
:10211800138A1500814899C183C8F4FF83420900D6
:1021280083CE040093058002637EEA1463EFD5151D
:1021380003C51400B7C5102093858513F6951D486F
:1021480003C305006370D81B13884EFF1378F80F7C
:10215800DD4563E10515B7C5C0009385750CB3D59A
:1021680005018589638805128545638AB218894502
:102178006389B21CD3F7A6106395020019C0D3F780
:1021880017101DC1130875FF1378F80FE14563E1B7
:102198000519B715E80193851504B3D50501858997
:1021A800638B0516D3F7A7106319EA1213858EFF00
:1021B8001375F50FE145537703D063EDA510B725E7
:1021C800100193855510B3D5A50085896384051042
:1021D8005DC6D3F7B710C3F7E76013068002539EB6
:1021E80007C06353C601328E09466353CE00328E50
:1021F80083A5434009681308884013961500420ECA
:102208007A98856F3298135E0E01938F4F4001457F
:1022180005660505B308BF0042053383F80141810F
:1022280063F2C50E2382D841230053002310D8003F
:10223800850523A2B3400908E36DC5FDD285850451
:102248000509E39EE5E80145256117E3FFFF6700FF
:10225800A314631FEA0413858EFF1375F50FE14578
:10226800537703D063E8A504B7251001938555106B
:10227800B3D5A5008589D387D6209DCD1DEED3F78C
:10228800371091BF0145E3F7D5EBD387D620530725
:10229800002091B7E38F08FA4DDD93888EFF93FFF6
:1022A800F80F614E637DFE0F930510026389BE141B
:1022B800537703D0D387D62019DE9385AEFE93F5E6
:1022C800F50F4146E369B6F061661306F608335622
:1022D800B600058AE31F06EEFDBD537703D0E31A67
:1022E80006EED5BD8545E3E1D5E9537703D009C5A9
:1022F80063840800E300EAFCD387D620E9BDD3F75E
:10230800261041B57D55256117E3FFFF6700C30817
:10231800A1456301B502930565FF93F5F50F79486B
:10232800E364B8E83708006413083844B355B800C4
:10233800858999C9B705112007A7C51AD3F7E710EA
:10234800A5B5D3F7461035BD29151375F50FC14549
:10235800E3ECA5E4E1659385F508B3D5A500858987
:10236800E38405E4B705112007A7051BD3F7E71099
:1023780025BD03861500E31406CA09CC37061120CB
:102388008726861811B3014405B103831800E315A5
:1023980003C66DF4370611208726C618F5B137280D
:1023A800100113085810B355F801858995C993058C
:1023B80085FF93F5F50F6365BE02B355B8008589AF
:1023C80085C1B705112087A70519D3F7F610631142
:1023D800EA08537703D0E31206EED3F73710E5BBCC
:1023E80013887EFF1378F80FE14563E9050DB715EB
:1023F800E80193851504B3D505018589C1CD5D151F
:102408001375F50FE14563EAA504B715E80193854F
:102418001504B3D5A5008589A9C1B705112087A7DB
:10242800451AD3F7F6106315EA0293F8F80FE54555
:10243800537703D0E381B8DAB72510019385551097
:10244800B3D515018589E38905E6E30A06E2B5B542
:10245800537703D0E31306E6BDBBE31BEAE493F826
:10246800F80FE545537703D0D387D620E396B8FC19
:102478009DB3370611208726461939B10306160081
:10248800E31106BCE31C04EE31B73706112087269A
:102498004618DDBE537703D0E31EEAE093F8F80F41
:1024A800B725100193855510B3D515018589D387B4
:1024B800D620E38305E0E30406DC01B5537703D0B7
:1024C8008148E30FEAFCD387D62031B30307050020
:1024D800AA8EAA876300071A0387170085076DFF6E
:1024E800338FD7416388D71917E3FFFFE70243E724
:1024F8000145014EB7CF10207D4A91446144B7C2CF
:102508001020B7C3102013094005930980043383B2
:10251800CE01930843009A8713874FAF638F17073D
:10252800830607000388070085070507E308D8FE28
:102538009A871387C2AF638B17098306070003883E
:10254800070085070507E308D8FE930833009A8734
:10255800138743B0638B17098306070003880700B6
:1025680085070507E308D8FE83070300639C270B4C
:1025780003071300631A37116379C500B387A500F1
:10258800130710022380E7000505090EE361EEF941
:1025980049C117E3FFFF670023E06375C502B387EE
:1025A800A500238047019307150063FDC702AE9776
:1025B800238097009307250063F6C702AE97238010
:1025C80087000D05110EE364EEF5D9B7E37CC5FE6F
:1025D800B387A500130780022380E700930715003F
:1025E800E3E7C7FC3E85110EF9BF6370C502B387E8
:1025F800A50049472380E7009307150063FFC70636
:10260800AE97654709052380E7000D0EE361EEF1FB
:1026180041B701453DDE23800500054517E3FFFF6F
:10262800670083D7130730056392E7028306130018
:10263800130780046392E608E379C5F4B387A5001D
:102648007D472380E7000505090E89B71307300485
:10265800639EE7360307130093068004631AD73492
:10266800E375C5F2B387A50025472380E700050574
:10267800090E29BF11E6014582803E850D0E79B706
:10268800238005000545828013073004050E638307
:10269800E72A130770046384E7289387E7FB93F717
:1026A800F70F6147E364F7EE37C710208A0713076F
:1026B800470DBA979C43828713079004639DE706EA
:1026C8000307130093072005631BF704E37FC5EA9C
:1026D800B387A50035472380E7000505090E7DB5BA
:1026E800E376C5EAB387A50055472380E70093073B
:1026F800150063F8C706AE9779472380E7000905F8
:10270800E367EEE171B5E373C5E8B387A500130786
:1027180050022380E7000505E36BEEDF95BD050E4B
:10272800E376C5E6B387A50049472380E70005059A
:10273800E36FEEDDB1BD13075005E397E7F4030738
:10274800130093072005E303F7F8050EE370C5E4CB
:10275800B387A50011472380E7000505E369EEDB91
:1027680005BD3E85E365EEDB25B5E371C5E2B387BC
:10277800A500130740022380E7000505E369EED9A9
:1027880001BDE375C5E0B387A500130700022380E8
:10279800E7000505E36DEED7E5BBE379C5DEB38752
:1027A800A50079472380E7000505E362EED7CDB39E
:1027B800E37EC5DCB387A50075472380E7000505E0
:1027C800E367EED5F1B3E373C5DCB387A5005547DE
:1027D8002380E7000505E36CEED35DBBE378C5DA3B
:1027E800B387A50071472380E7000505E361EED3B1
:1027F80045B3050EE37CC5D8B387A50009472380F8
:10280800E7000505E365EED161B3E371C5D8B38789
:10281800A50061472380E7000505E36AEECF8DBB7D
:10282800E376C5D6B387A5005D472380E700050595
:10283800E36FEECDB1BBE37BC5D4B387A5005947A1
:102848002380E7000505E364EECD99B3E370C5D4B2
:10285800B387A500130760022380E7000505E36836
:10286800EECB3DB3E374C5D2B387A50051472380AF
:10287800E7000505E36DEEC921BBE379C5D0B38751
:10288800A50045472380E7000505E362EEC909B3C3
:10289800E37EC5CEB387A5003D472380E700050545
:1028A800E367EEC7F5B10307130093072005E30FAD
:1028B800F7E09307FFFF6397C72593373F00050E9F
:1028C800E38607CCE374C5CCB387A50031472380E2
:1028D800E7000505E36DEEC365B9E379C5CAB387BB
:1028E800A50029472380E7000505E362EEC34DB143
:1028F800E37EC5C8B387A50021472380E700050507
:10290800E367EEC171B1E373C5C8B387A5001307C8
:1029180070022380E7000505E36BEEBF95B9636697
:10292800EE03E377C5C6B387A50041472380E700D8
:102938000505B9B96369EE05E37CC5C4B387A5008D
:1029480055472380E7000505A1B1B387CE0103C72A
:102958000700D1471307B7FB1377F70F63ECE708B6
:10296800B7071000C507B3D7E700858BFD17F19BA4
:10297800D107E37EC5B83387A5002300F700050516
:10298800E367EEB931B1B387CE0103C70700D1477A
:102998001307B7FB1377F70F63E0E706B7071000D5
:1029A800C507B3D7E700858BFD17DD9BF907D1B7BE
:1029B8009306B004E311D7D8E379C5BCB387A50063
:1029C80055472380E7000505090EC9B61307E0043B
:1029D8006396E7028306130013077004E39EE6CCB0
:1029E800E375C5BAB387A50065472380E7000505E9
:1029F800090E69BEC147B5BFD547A5BF1307000576
:102A08006392E7028306130013078004E396E6CA7D
:102A1800E37DC5B6B387A5003D472380E7000505DC
:102A2800090EADB6130710056391E704830613007A
:102A380013075005E392E6C8AA876373C502B387F4
:102A4800A50055472380E7009307150063FAC700E0
:102A58003387F50093065002930725002300D7001B
:102A6800090E3E85E365EEAB25B613075004639364
:102A7800E7028307130013071004ED9BE395E7E2D1
:102A8800E375C5B0B387A5004D472380E70005056A
:102A9800090EEDBC1307F0046391E70483071300E4
:102AA8001307F004639DE700E371C5AEB387A50083
:102AB800130730022380E7000505090EC1BC130780
:102AC80050056393E704E372C5ACB387A5001947C3
:102AD8002380E7000505090E55BC13071004E39D84
:102AE800E7BC8307130013079004BD9B639CE702B0
:102AF800E37DC5A8B387A50039472380E70005050E
:102B0800090E69B4050E7DBB130770056396E704CB
:102B1800E37DC5A6B387A50069472380E7000505BF
:102B2800090EADB403071300930720056317F704D4
:102B3800AA87E377C5F2B387A50009472380E70092
:102B480093071500E3FEC7F03387F500F5469307B2
:102B580025002300D70029B7030713009306900424
:102B68003D9B6318D702E372C5A2B387A5006D47E2
:102B78002380E7000505090E11BC050EE378C5A002
:102B8800B387A5000D472380E7000505E361EE99AB
:102B980001B413072005E39EE7C4AA87E372C5ECD6
:102BA8003387A5009546930715002300D700E3F95E
:102BB800C7EA59BF630C0564638A056417D3FFFF2E
:102BC800E7028378F972938202751691AE8B32C848
:102BD80011662A841306C64081455E8597D0FFFF9B
:102BE800E780007D2285B70411207D546C11239461
:102BF800841697F0FFFFE78040FE03AE0B40239456
:102C080084169307F01F63E0C72DB387CB0189654E
:102C18002380070023800720DE9583A74540096AA3
:102C2800130A8A40B3864B01050E139717000565F2
:102C380036C623A0CB4136971383A700130545401A
:102C48008568B386FB003386A60063FE17272382B8
:102C580006402300060023108700850723A2F540BD
:102C68000907E39067FE89679387C7881810BA97A2
:102C780003AD070063050D488968930AC10A338AC2
:102C88001B01854401497D5C568597F0FFFFE7806D
:102C9800201B83850A00D6892A8431E937CB102086
:102CA800130B8B20930C8B0B5A85130610049DC5B0
:102CB80014412E87D68739A00387070011CF0386D2
:102CC800160085068507E309E6FE110563009515DC
:102CD800144103860600F1BF03861600630A062026
:102CE8001105630595131C4103860700C9B7D9CDA3
:102CF80037C710201307C7A8AE86D6871306C003A8
:102D080001A883860700638F061C030617000507C2
:102D18008507E308D6FEB7C71020938747A8AE8675
:102D280056871306C00301A8830607006386061AA0
:102D38000386170085070507E308D6FEB7C71020E6
:102D48009387C7A92E87D6861306C00301A80387D1
:102D58000600630C071E0386170085078506E3082F
:102D6800E6FE930640026304C702B7C710209387A4
:102D780087B01307C00301A883850900638D052068
:102D88000387170085078509E308B7FED94603A717
:102D98000B40B7071120239487179307F01F63E4AC
:102DA800E712B387EB0023800700238007208327DF
:102DB8004A40050723A0EB40B385F600B2461397B7
:102DC80017000565369713054540856EB386FB00E9
:102DD8003386A60063F9D70F238206402300060036
:102DE8002310870185072322FA400907E390B7FEDD
:102DF800014989679387C7881810BA9703AD0700F8
:102E0800938A0A0363FBA42F8504BDBD0509854D7C
:102E180063F3A40F93890A034E8597F0FFFFE780B9
:102E2800200263070512568597E0FFFFE780A03070
:102E3800AA8D71C9C247639F071803C7CD0083A62F
:102E48008D0003A64D00CE87D6855E8597F0FFFFDF
:102E5800E780C00E2DE951DC03A70B40B70711200E
:102E6800239487179307F01F63EFE704B387EB00FA
:102E7800238007002380072083274A40B24605079E
:102E880023A0EB4085651397170036979385454037
:102E9800B386FB000565938E67003386B60063F43E
:102EA800A702238206402300060023108701850716
:102EB8002322FA400907E38DD7F3B386FB00338654
:102EC800B600E3E0A7FE89629382028B7D551691D6
:102ED80017D3FFFF6700434B83871700B946E39F6B
:102EE80007E475B503061700A146E31606E245B5E3
:102EF800814DE3E1A4F3568597E0FFFFE780A02327
:102F08008149AA8D05F9B7C71020038F0A00938E4F
:102F1800072C7685130620048145954F63080F0812
:102F280014417A87D68739A00387070035CF0386EF
:102F3800160085068507E309E6FE8505638DF51706
:102F48001449410503860600E9BF0386170011BD31
:102F580093377900639E0714638C0D14E3FDA4F97D
:102F680083850A0313061004A9CD83260B002E8738
:102F7800CE8739A00387070039C303861600850664
:102F88008507E309E6FE110B630C9B2783260B00DC
:102F980003860600E9BF8386170093B61600B306BA
:102FA800D040C19AD906E5B30386160075CA8505CF
:102FB8006383F5111C4941050386070085B703861D
:102FC80016007DC6110B630D9B2383270B00038618
:102FD800070059BF37C51020130545B1D68597009E
:102FE8000000E780202303C7CD00014D37CB102018
:102FF80059CFB7C71020B7CC1020938707B3938C4D
:103008004C163ECA21A803C7CD00050D9376FD0FC7
:1030180063EFE6049376FD0F63FBE60603A74D0016
:10302800B7C71020938507B16A97834607009307AF
:1030380080021305CBB213972600669763E3D70087
:103048000C4397000000E780E01C03A78D006A97F7
:1030580083450700CDD95245050D97000000E7804C
:10306800601B03C7CD009376FD0FE3F5E6FAB7C5FD
:103078001020938545B31305CBB297000000E78075
:10308800601903C7CD009376FD0FE3E9E6F837B57D
:1030980010201305056697000000E780A01771BB94
:1030A8009205B387BE0003C7C7009447D04361BBEE
:1030B800014481498DBB6C1013060004568597F0B6
:1030C800FFFFE780E0402A8D13060004E8108145E1
:1030D80097D0FFFFE780C02DC247C9EFCE876A8728
:1030E800F4107010D6855E8597F0FFFFE78000E545
:1030F800E31B05DCE30F04CE85B303AE0B40B70733
:103108001120FD58239417179307F01FE3EDC7DB31
:10311800B387CB0189652380070023800720DE95CC
:1031280083A74540B246050E13971700056523A0EF
:10313800CB413697138EC700130545400563B38608
:10314800FB003386A600E3F067D8238206402300FD
:10315800060023101701850723A2F5400907E3108D
:10316800FEFE89629382028B0145169117D3FFFFF9
:103178006700832137C51020130585B3D6859700CE
:103188000000E7802009630F0D04930CC10237C7C4
:103198001020B7C71020B3069D0113074716938761
:1031A80047B336CA3ACC3ECE37CB1020B7CD102025
:1031B80003C70C00930680021305CBB293850DB1AB
:1031C8009317270063E5E6006247BA978C43970098
:1031D8000000E7802004D247850CF2451305CBB2E6
:1031E800639BFC0037B510201305056697000000A7
:1031F800E7804002E5B597000000E780A0014DBFD9
:10320800B7C91020938989B0054431B97D558280AA
:103218003971130341022ED29A8506CE32D436D69E
:103228003AD83EDA42DC46DE1AC697700000E780DC
:1032380000E9F2402161828017D3FFFFE7024312C1
:1032480093D425002E892A8A93F9350097300000F7
:10325800E780005981CC8A04D29452840840110432
:1032680097300000E7804058E39A84FE638709029C
:103278001379C9FF5299014581473307F90003477C
:1032880007009396370085073317D700598DE396C3
:10329800F9FE97300000E780205597300000E7805E
:1032A800205517D3FFFF6700230F17D3FFFFE7024F
:1032B800230A0C45130101DD2A8A05462800976078
:1032C8000000E780A0E0631A0514524683264A00EE
:1032D8006317D60EAA8A97200000E78080E183272B
:1032E8004A00AA8C096703250A007D17BA97F97561
:1032F800370B0008FD8D3365650197200000E780D6
:1033080020829147AA8B6313F50E03244A006308B1
:103318000412B73917209389492E0149056C91A8E1
:103328009247639187086376940097D0FFFFE78000
:10333800200803250A002686CE854A95336565014F
:1033480097200000E780C0AC03270A00AA872686DA
:10335800B304E900CE852685639077159770000041
:10336800E78060F222996319051003244A00637804
:10337800890C330424415400CE85280063738C00E3
:103388000564228697600000E780E0019304F40F4B
:10339800AA8793F404F0338684409305F00F3385AD
:1033A8008900BDDF280097600000E7806053954AD8
:1033B80056851301012317D3FFFF670023FD8325DB
:1033C8008A0037C51020130545CF97700000E780A5
:1033D80060BF280097600000E7808050914A5685BA
:1033E8001301012317D3FFFF670043FA83250A005F
:1033F80037C51020130585D497700000E78080BC7E
:10340800280097600000E780A04D994A568513016F
:10341800012317D3FFFF670063F783258A0037C5A9
:1034280010201305C5CD97700000E780A0B98D4A1C
:1034380056851301012317D3FFFF670023F52800E2
:1034480097600000E780C0490324CA0083244A002B
:1034580003290A0097200000E780A0C9B7C71020F9
:1034680033079541CA862686A2851385C7D19770EA
:103478000000E78020B5A5B737C51020A68513053D
:1034880085D897700000E780E0B3280097600000B7
:10349800E7800045A14AA1B737C51020A6851305C6
:1034A80085D697700000E780E0B12800976000009B
:1034B800E78000439D4A25B717D3FFFFE70243EA99
:1034C800411197300000E780C03037C40D00184024
:1034D800B7575654938757236316F70058409547B4
:1034E8006300F71037C51020130505DF977000003B
:1034F800E78060BC97400000E78020E1631A05166A
:1035080037C910201309893393090903CA8426850A
:1035180097000000E780A0D92A84C10445EDE3980C
:1035280034FF896537C50D0897100000E780405FB4
:103538009147631EF510373517201306000F130542
:10354800452F9305F00F97D0FFFFE78060E6B73768
:103558001720375756549387472E13075723154676
:103568008D46BE8423A6070098C3D0C394C7938909
:1035780047020325090083254900B104C8C08CC44B
:1035880097000000E78080CBC8C44109E39334FF6B
:10359800B7341720130600109385442E37C50D083D
:1035A80097200000E780C08691476311F50C93854A
:1035B800442E1306001037C50D0097700000E780F1
:1035C80080CC4DE537C51020130585E297700000C3
:1035D800E78060AE2285410117D3FFFF6700C3DB98
:1035E800832984008D47E39FF9EEB7C71020138A1B
:1035F800873313898733814493971400A6978A07E2
:10360800A297884B03270900E31EE5EC032749002E
:10361800CC4BE399E5EC9C4F3EC697000000E78051
:10362800E0C1B2476390A70685044109E39634FDDB
:1036380037C51020130545DC97700000E780A0A768
:1036480005442285410117D3FFFF6700E3D41944DD
:1036580037C51020130585E397700000E780A0A503
:103668002285410117D3FFFF670003D32544CDB757
:1036780037C51020130505E197700000E780A0A367
:10368800094489BF9204B3079A00CC4737C5102074
:103698001305C5DA97700000E780C092A1B5A54769
:1036A80063EAA700B7C710200A0593870731AA97CE
:1036B8008843828037B510201305C55E8280630A6F
:1036C800B50205CA637DB5002A96AA8703C7050017
:1036D80085078505A38FE7FEE39AC7FE8280B2952A
:1036E8002A9683C7F5FF7D16FD152300F600E31A19
:1036F800C5FE82808347150083480500374317209D
:10370800139687003366160115821303432E7D8AAC
:1037180093F8F8010905B30713013308C3002A8792
:1037280063FDC8008346070085070507A38FD7FEFA
:10373800E39A07FFB3081641469532932300030026
:1037480083471500034705000905A207D98F9CC1C7
:10375800828031C193B705029DEF1841B7574B31AD
:10376800938777656317F7021C4D63E8F5021849DC
:103778005C49B70511202A97AA9737061120B70682
:10378800112023A6A62823A4E5282322F6280145EC
:103798008280795582807D5582807555828017D3C5
:1037A800FFFFE702E3BAB707112003A9C728797119
:1037B800630909060307050081470DCFE545FD4864
:1037C80013089003130360021306F7FB1376F60F32
:1037D800050563EEC5049306070213978601618702
:1037E800B38627002388E60003070500850719C369
:1037F800E39C17FD0008B306F40091CF0387F6FF9A
:103808009385F7FFFD16130697FD130737FD11C2C1
:1038180029E3AE87E5F7A287238007008304010127
:103828009DEC0145456117D3FFFF670023B6634B45
:10383800E8006349E3140307050059F70008B306D5
:10384800F40065BF9306F7F993F6F60FE3E5D5FEA6
:1038580041BFA2972380070083040101F9D0032CFC
:103868008900E3000CFC37071120B70711208329D2
:10387800472803AA8728814B374B1720B30A7C4176
:1038880093DA1A00DE9A93972A00D29783C6170014
:1038980003C6070003C7270003C53700A206D18E59
:1038A80093170701D58F62055D8D4E956C009700C3
:1038B8000000E78060E483074B2E2686A286130764
:1038C8004B2E99E779A883070700C1CF0386060026
:1038D80005078506E389C7FE93F7F70F1376F60FFA
:1038E8006351F608568CE3EB8BF9E38C0BF28327D4
:1038F800C900FD1B03294900338777033309E940D1
:1039080063E02709E30F09F08A0B5E9A83461A00E1
:1039180003460A0003472A0083473A00A206D18ECD
:103928004207558FE207D98F3385F90081496C002A
:1039380097000000E78040DC83074B2E2686A2868E
:1039480013074B2E81EB11A88307070085C3038655
:10395800160085060507E389C7FE8509E39929FD51
:10396800C9B5938B1A00E3EB8BF141B78387160037
:10397800EDF70355C100456117D3FFFF670003A1A9
:103988003E8949B737060800930697FD130616E4E3
:10399800B356D600858AE38006EA99B517D3FFFFA8
:1039A800E702039B83070500130101BEAE84328939
:1039B800B68CFDCB370A80002A844D0A130C01020D
:1039C800814BDD49354BA14A11A0050403070400CA
:1039D800930777FF93F7F70F63EEF90AB357FA00E7
:1039E800858BE5F7A945794531A863C4EA02050442
:1039F8006365F5002380E6BE850703070400137698
:103A0800F7FD01CA938607428A96E3D0E5FEE310E4
:103A180067FF8A970A852380070097000000E780E0
:103A280040D8830704002310AC00850B91C7930787
:103A38000020090CE39CFBF8630709021316190020
:103A4800E68766960C1095C483D604001397160073
:103A58002E9763F476050357070089078904239F87
:103A6800E7FEE313F6FE1301014217D3FFFF6700D9
:103A7800E3912390070013872700E306C7FE2391ED
:103A880007009107E317F6FE1301014217D3FFFF62
:103A98006700C38F55D38147B1B7239007008907C3
:103AA800E303F6FC89044DB7814B79B701A017D31E
:103AB800FFFFE702A38C371402401C40411137076F
:103AC8005C3093E717001CC05C40F98F5CC05C4019
:103AD800B18BF5FF5C403707C0FF7D17F98F5CC0DD
:103AE8001C44B706A76AFD16860785831CC41C40BC
:103AF8003707FCFF7D17F58F1CC01C4037C5FF0F2B
:103B0800B705FF00F98F1CC01C443706600CB7E6E8
:103B1800F0FFE98F1CC41C44938606083707080089
:103B280093E747001CC44CC41C5813070702F18FC5
:103B38001CD85C58F58F5CD85C58D98F5CD8970036
:103B48000000E780007D02C202C402C61C40416733
:103B5800B7160240D98F1CC037070200370600018C
:103B680021A09247638AC7009C42F98F3EC49247BE
:103B780085073EC2A247F5D7B71702409C43139763
:103B8800E700635D070085473EC422478547630C0D
:103B9800F700410117D3FFFF6700C38002C4224723
:103BA8008547E318F7FE371702401C47717613065E
:103BB800F60F819B1CC71C479306000293E7670119
:103BC8001CC71C47F18F1CC71C471CC71C4793F711
:103BD800F7F11CC71C47D58F1CC71C4793F7070E66
:103BE800E39DD7FE1C4337060001B7160240D18F6C
:103BF8001CC39C4213976700E35D07FE9C4637068B
:103C080000907D16860785839CC69846B7170240A4
:103C1800718F98C698479356C7019D8AE5FED84389
:103C28003706FDFF7D161377F7F0D8C3D8434168F0
:103C3800B725024013670708D8C3D8433705008063
:103C4800B7160240718FD8C3D043214733660601A7
:103C5800D0C3904132C63246719A32C63246136694
:103C6800160032C6324690C19047498E90C7D0435D
:103C7800719AD0C3D04313662600D0C3DC42B18BFF
:103C8800E39EE7FE410117C3FFFF6700A3713716E4
:103C9800024054420C4637877D01B18A21451307FB
:103CA80007846382A606B707112023A8E7163716EC
:103CB80002405442B7C71020938787379182BD8A44
:103CC800B69783C507005C42B70611209386862005
:103CD800C1838D8BB69783C60700B357B7003706E5
:103CE800112033D7D7002328E628B7F600E083A6AB
:103CF80006D11396F60063430600BA8737071120EA
:103D08002326F7168280B7060070F58DB707005096
:103D18006386F50A63FDB700B70700606382F5089C
:103D2800E393D5F83767730713070794ADBF91C9B5
:103D3800B7070040E399F5F637479C1C130707803F
:103D48009DB70C4614461C461305000A93F6060E4A
:103D5800A18393F7F703FD8985076380A6081305F8
:103D6800000E6383A60813060008638EC6081306B0
:103D7800000C6381C60AB357F70205671307075596
:103D88003357B700058B21C337C71020130787386F
:103D98002E9703470700B307F70213D7170021B779
:103DA800545AB7C7102093878736C182B69783C7FE
:103DB8000700B387E70213D71700F5B53767CD1D9E
:103DC80013070750CDB537C71020130787382E972C
:103DD800034707003307F702F9B53767CD1D130707
:103DE8000750B357F70251BF505AB7C610209386F1
:103DF80086364182B29683C606003387E60205837B
:103E0800B357F7029DBF37479C1C13070780B3576A
:103E1800F702A5B73767730713070794B357F70275
:103E2800A9BFB707112083A7072937E71B43130743
:103E380037E8B3B7E7021307803E37061120B70605
:103E48001120C9833387E702231CF62823AAE62812
:103E5800828037F700E05C43B7061120F99B5CC30A
:103E680083D78629232407009146B387A7021CCB52
:103E780014C31C4393E717001CC35C43858BF5DF11
:103E88001C43F99B1CC3828037F700E05C43B706EC
:103E98001120F99B5CC383A6462923240700914778
:103EA8003305D50208CB1CC31C4393E717001CC37A
:103EB8005C43858BF5DF1C43F99B1CC3828017C3C9
:103EC800FFFFE702A34B2A841165011185451505FB
:103ED80002C202C402C602C802CA02CC02CE9710AD
:103EE8000000E780E0A8371501401D46130505804E
:103EF800A54597000000E780201F3715014093066D
:103F080000200D47E1474C00130505802312D1001E
:103F18003AC43EC697000000E780600C3745014070
:103F2800B70708000C08130505803ECC22C8231EDD
:103F3800010002CA97100000E780401C3745014085
:103F480013050580854597100000E780C0290561A5
:103F580017C3FFFF6700034517C3FFFFE7020342CC
:103F68003289635FC0022E84B384C500374501409F
:103F7800130505809305000497100000E780A02929
:103F880075D583050400374501400504C2051305AE
:103F98000580C18197100000E780A026E31894FCF3
:103FA8004A8517C3FFFF6700E33FB706112003A741
:103FB8004617B7071820938707803A9563ECA70040
:103FC800B7571720938707B96366F50023AAA61683
:103FD8003A8582807D573A85828083AE850083D674
:103FE800050093F70E0113FFFE00A9C30328C501BE
:103FF800136F1F00814705438D4FC1483317F300E6
:1040080033F6E600631FC700139E1700D8413396A6
:10401800CF011346F6FF337806013317C70133681B
:1040280007018507E39C17FD232E050193F7F60F7B
:10403800A1CB0C4181470543BD4F130E800293026B
:104048008004A14821A08507638B17033317F30069
:1040580033F6E600E319C7FE139627003398CF001E
:104068001348F8FFB375B8003316CF00D18D6389B4
:10407800CE07E39A5EFC18C98507E39917FD0CC1C2
:104088009307F00F63FBD7044C4101470543BD4F2D
:10409800130E800293028004A14821A00507630D36
:1040A800170393078700B317F30033F6F600E39777
:1040B800C7FE131627003398CF001348F8FFB375CF
:1040C800B8003316CF00D18D638ACE01E3985EFC29
:1040D8001CC90507E31717FD4CC182805CC97DBF69
:1040E80058C995B79D4763F8B704B7170140E1155C
:1040F8009387078093F5F50F37170140630EF5088E
:10410800B7170140938707C0630CF5106309E50EE4
:10411800B7170140938707406306F514B727014096
:10412800938707806304F51CB7270140938707C06E
:10413800630CF5168280B7170140938707803717FD
:104148000140630CF506930707C0630CF50E63077F
:10415800E508B7170140938707406306F512B727AC
:104168000140938707806302F516B72701409387BC
:1041780007C0E311F5FC3707014054578A05BD47CE
:10418800B397B70093C7F7FFF58F5CD75C57B315A4
:10419800B600DD8D4CD782803707014014478A0569
:1041A800BD47B397B70093C7F7FFF58F1CC71C47E8
:1041B800B315B600DD8D0CC7828037070140544324
:1041C8008A05BD47B397B70093C7F7FFF58F5CC360
:1041D8005C43B315B600DD8D4CC3828037070140C0
:1041E800544B8A05BD47B397B70093C7F7FFF58FC0
:1041F8005CCB5C4BB315B600DD8D4CCB82803707AA
:104208000140144F8A05BD47B397B70093C7F7FF1E
:10421800F58F1CCF1C4FB315B600DD8D0CCF8280F7
:1042280037070140144B8A05BD47B397B70093C7BA
:10423800F7FFF58F1CCB1C4BB315B600DD8D0CCBEF
:1042480082803707014054478A05BD47B397B700B6
:1042580093C7F7FFF58F5CC75C47B315B600DD8DD4
:104268004CC782803707014014538A05BD47B3976E
:10427800B70093C7F7FFF58F1CD31C53B315B600CF
:10428800DD8D0CD3828037070140544F8A05BD4726
:10429800B397B70093C7F7FFF58F5CCF5C4FB315A3
:1042A800B600DD8D4CCF828037070140145B8A054C
:1042B800BD47B397B70093C7F7FFF58F1CDB1C5BAF
:1042C800B315B600DD8D0CDB8280370701405453EF
:1042D8008A05BD47B397B70093C7F7FFF58F5CD33F
:1042E8005C53B315B600DD8D4CD38280370701408F
:1042F80014578A05BD47B397B70093C7F7FFF58FE3
:104308001CD71C57B315B600DD8D0CD7828017C398
:10431800FFFFE702A306411185451305C00F02C23E
:1043280002C402C697000000E7808064970000007E
:10433800E780A07A37F7FF1F8327477093F6070FA8
:10434800638406223707714193F7F7F01307D750B4
:10435800638DE724636AF712370750411307D75074
:104368006382E730370760411307D7506399E71036
:104378003715014003264580130505808147054808
:10438800BD48A145138787003317E8009376F78F58
:1043980081EE58C913972700B396E80093C6F6FF35
:1043A800758E3397E500598E8507E39DB7FCB717DF
:1043B800014023A2C7804000930740C03715014041
:1043C800A285130505C02312F100930780023EC69B
:1043D80097000000E780A0C0B718014003A6480076
:1043E800C975FD15814705483D4321451387870059
:1043F8003317E800B376B70089EE23AAE8001397CD
:104408002700B316E30093C6F6FF758E3317E50051
:10441800598E8507E39CA7FCB7170140D0C31385C5
:104428000740130780029307309FA2852312F100EB
:104438003AC697000000E78080BAA1673725014097
:104448009387F7DFA28513078002130505802312DF
:10445800F1003AC697000000E78060B89567A2852A
:104468009387F7833725014013078002130505C09A
:104478003AC62312F10097000000E78040B64101D8
:1044880017C3FFFF670003F2370772411307D750BE
:10449800E397E7FE896740009387F7FD37150140EA
:1044A8002312F100A28593078002130505803EC6FA
:1044B80097000000E780A0B2617737150140130725
:1044C800C70F93078002A285130505C02312E100D8
:1044D8003EC697000000E78080B0930780023EC682
:1044E800F97793870703A285371501402312F10056
:1044F80097000000E780A0AE37150140032645402D
:104508001305054081470548BD48A1451387870025
:104518003317E8009376F7CF81EE58C91397270031
:10452800B396E80093C6F6FF758E3397E500598E6B
:104538008507E39DB7FCB717014023A2C7408967E9
:10454800F117372501402312F100130505801307E1
:104558008002A2853AC697000000E78040A89167CC
:10456800A285938707FCFDBD8545370500801304A8
:10457800477097000000E7808041B787004083A616
:10458800474281453705008093E6160023A2D742AB
:1045980097000000E780A03F1C40370771411307D0
:1045A800D75093F7F7F0E397E7DA40009307E01C5A
:1045B80037150140A285130505802312F1009307E2
:1045C80080023EC697000000E78060A1617737153A
:1045D80001401307470E93078002A285130505C003
:1045E8002312E1003EC697000000E780409F930732
:1045F80080023EC6F97793870703A28537150140E5
:104608002312F10097000000E780609D37150140F4
:10461800032645401305054081470548BD48A14587
:10462800138787003317E8009376F7CF81EE58C9D0
:1046380013972700B396E80093C6F6FF758E339755
:10464800E500598E8507E39DB7FCB717014023A203
:10465800C7403725014093074038130505802312CA
:10466800F100F5B53715014083264580130505800F
:10467800014705483D4321469308001093078700EA
:10468800B317F80093F7F7EF89EF93172700B315DF
:10469800F30093C5F5FFED8EB317F600232A150135
:1046A800DD8E0507E31CC7FCB7170140371501402D
:1046B80023A2D780032605C0130505C081470548F6
:1046C800BD48A1453317F8009376B7FD81EE58C968
:1046D80013972700B396E80093C6F6FF758E3397B5
:1046E800E500598E8507E39FB7FCB717014023A063
:1046F800C7C0F97713048002938707024C00371567
:1047080001402312F10022C697000000E780208DA7
:1047180037150140DD574C001305054022C623120A
:10472800F10097000000E780808B37250140930750
:1047380070784C001305058022C62312F1009700FB
:104748000000E780C089A167372501404C009387A6
:1047580077FC130505C022C62312F100970000005C
:10476800E780E087410117C3FFFF6700A3C3B716BF
:104778000240DC42904637877D01B18BA145130783
:1047880007846389B70A18C1371602405442B7C76D
:1047980010209387873B9182BD8AB69783C507000F
:1047A8005C42B706112093868621C1838D8BB6970C
:1047B80083C707003357B700B7F600E0B357F700D1
:1047C8005CC183A606D11396F6006352060418C589
:1047D80037170240544363C306045043B7061120F9
:1047E800938606212D821D8AB29603C60600584379
:1047F800B70611209386C62039830D8B3697034759
:104808000700B3D7C700B3D7E7025CC582803E87ED
:1048180018C5371702405443E3D106FC5843B7473D
:104828009C1C938707802D837D8B1507B3D7E702E0
:104838005CC58280B70500706D8EB70700506305B0
:10484800F60A63FDC700B70700606301F608E31CBA
:10485800B6F2376773071307079435B711CAB70756
:104868000040E312F6F237479C1C1307078021BF6C
:104878008C4690469C461308000A1376060EA183C0
:1048880093F7F703FD898507630F06071308000EE2
:104898006302060993060008630DD6089306000C08
:1048A8006300D60AB357F70205671307075533574E
:1048B800B700058B1DCF37C710201307873C2E97ED
:1048C800034707003307F702058375BDD45AB7C7F6
:1048D80010209387873AC182B69783C70700B387AA
:1048E800E70213D7170045B53767CD1D13070750E3
:1048F80059BD37C710201307873C2E970347070079
:104908003307F70249B53767CD1D13070750B3576B
:10491800F70259BFD05AB7C610209386863A41820B
:10492800B29683C606003387E6020583B357F702BB
:10493800A5BF37479C1C13070780B357F702ADB7CD
:104948003767730713070794B357F702B1BF99C5C1
:10495800371702401C4FC98F1CCF8280B7170240FF
:10496800984F1345F5FF798D88CF828099C5371701
:1049780002405C4FC98F5CCF8280B7170240D84F86
:104988001345F5FF798DC8CF828099C53717024046
:104998001C53C98F1CD38280B71702409853134504
:1049A800F5FF798D88D38280B7D7FEBF93870740FC
:1049B800AA9783D6450003D70500A9C7B7D7FEBF76
:1049C800938707C0AA979DCFB70700C0AA97A5CB22
:1049D800B70700C0938707C0AA97B5C3B70700C039
:1049E80093870780AA97A1CFB7F7FFBF93870740A0
:1049F800AA97B1C72316D5022314E5028547231ABF
:104A0800F50082808357050003D825004166130608
:104A1800F6F8F18F03D66500B3E7070193F7F7CFF0
:104A2800D18F2310F5002316D5022314E50283C77E
:104A380085002318F5028547231AF50082808357DD
:104A4800050003D8250041661306F6F8F18F03D652
:104A58006500B3E7070193F7F7CFD18F2310F5006F
:104A68002316D5022314E5028547231AF500828010
:104A78008357050091C593E717002310F50082803E
:104A880041677917F98F2310F50082808357C50095
:104A980009C6CD8F2316F500828093C5F5FFED8FEB
:104AA8002316F5008280035545038280035585034C
:104AB8008280035705018357C5006D8FED8F33370B
:104AC800E000B337F0003375F700828093C5F5FF37
:104AD8002318B5008280011106CE22CC0010B7073A
:104AE80000089C432326F4FE97000000E780A002FC
:104AF800AA872326F4FE8327C4FE93F707F023260C
:104B0800F4FE8327C4FE99833E85F2406244056122
:104B18008280B7270240C84F09818280B7270240A8
:104B280003A8C702B70700102A863378F800B7072A
:104B380000F8AA97B7260240630B080837070F004A
:104B48001305F00F63F9E70AB307B60037070F0834
:104B58001305D00F6361F70AB367B600CE07D1EB30
:104B6800C9C93707674513073712B797EFCDD8C2BA
:104B78009387B79ADCC2D8D2DCD2C16763FEF51638
:104B88000145014813D7D500B726024089659C4ADC
:104B980093E727009CCAD0CA9C4A93E707049CCA9B
:104BA800DC46858BF5FF9C4A7D172E96F59B9CCAA3
:104BB80079FF631E0520B7270240984BA16611456F
:104BC800558F98CB984B1367070898CB8280378707
:104BD80007001305F00F63F0E702B307B600378745
:104BE80007081305D00F6368F700B367B600D2074C
:104BF80081C71305E00F8280EDDD3707674513078E
:104C08003712B797EFCDD8C29387B79ADCC2D8D2FC
:104C1800DCD2A16763E9F50A9388F7FFB378160138
:104C28003385F5403387174146953308E600638995
:104C38000816636BF51CB306A8009397160193DE5C
:104C48001701428E81C7617E33FEC601B306D54186
:104C58003705FCFF93D5F6007D15B72602403703CC
:104C68000400A1689C4AB3E767009CCA23AA06010E
:104C78009C4A93E707049CCADC46858BF5FF9C4A4F
:104C8800FD154698E98F9CCAF1FD76857288631DEB
:104C9800071615D1935615003727024005661C4B99
:104CA80093E727001CCB232A07011C4B93E7070433
:104CB8001CCB5C47858BF5FF1C4BFD163298F59B8A
:104CC8001CCBF1FECDBD014513D7C500B726024068
:104CD80085659C4A93E727009CCAD0CA9C4A93E7FB
:104CE80007049CCADC46858BF5FF9C4A7D172E96E7
:104CF800F59B9CCA79FF71BF9318060193D80801E8
:104D08003385F5403387174146953308E6006399A4
:104D1800080E9C4A37070400D98F9CCAD0CA9C4AFF
:104D280093E707049CCAD846058B75FF9C4AB705CC
:104D3800FCFFFD15ED8F9CCAC167E36CF5E6B30770
:104D4800A800139E0701135E0E01C28E63050E00B4
:104D5800C17EB3FED701B306C5413705FCFF93D525
:104D680006017D15B726024037030400C1689C4A36
:104D7800B3E767009CCA23AA06019C4A93E7070485
:104D88009CCADC46858BF5FF9C4AFD154698E98F41
:104D98009CCAF1FD72857688E30D07E0BA85DDB31C
:104DA8009C4A37070400D98F9CCAD0CA9C4A93E70B
:104DB80007049CCAD846058B75FF9C4AB705FCFFBB
:104DC800FD15ED8F9CCAA167E377F5E6D9B5935633
:104DD800D5003727024009661C4B93E727001CCBF8
:104DE800232A07011C4B93E707041CCB5C47858BE0
:104DF800F5FF1C4BFD163298F59B1CCBF1FE65BBED
:104E0800E37FF5F2BA85BDBBBA857DBDB727024001
:104E18009387C7029C43370700F8AE8693953700FF
:104E28002A9763D20502B7050F009307F00F637A3C
:104E3800B7003307C500B7050F089307D00F63F213
:104E4800E5023E858280B78507009307F00FE37A75
:104E5800B7FE3307C500B78507089307D00FE3E20D
:104E6800E5FEB367C50093F7F70F91E309E69307EB
:104E7800E00F3E858280B705674537270240938556
:104E88003512B797EFCD4CC39387B79A5CC34CD311
:104E9800137606F0938806104173B305D5405CD3AA
:104EA8003388C60046857D13C16E370E20001C4B23
:104EB800B3E7D7011CCB5C47858BF5FF5C47898B33
:104EC800F5FF9042B387B600910690C35C47898B83
:104ED800F5FFE398A6FE1C4BC686B3E7C7011CCBBB
:104EE8005C47858BF5FF1C4B13050510B3F767006E
:104EF8001CCB638508019388081055BF144B2166A5
:104F08009147D18E14CB144B3E8593E6060814CBFB
:104F1800828017B3FFFFE702634697F0FFFFE78041
:104F280040B997F0FFFFE780C0D697F0FFFFE78012
:104F380080EF71651305052097F0FFFFE78060F8A3
:104F480097000000E7800011B7E700E0370704008A
:104F580023A2E77237F700E0832707D193E7070218
:104F68002328F7D097C0FFFFE78060C897C0FFFFEE
:104F7800E78080FDE5BF357106CF16CDF3223000FE
:104F88002AC5371500402EC316CB1AC91EC732C111
:104F9800B6DEBADCBEDAC2D8C6D6F2D4F6D2FAD0B9
:104FA800FECE82E686E48AE28EE012FE16FC1AFA4B
:104FB8001EF82AF62EF432F236F03AEE3EEC42EAC9
:104FC80046E872E613050540854576E47AE27EE018
:104FD80097000000E78020AE39E9FA40DA42739082
:104FE8003200EA424A43BA432A459A450A46F656E7
:104FF8006657D6574658B658265E965E065FF64FF1
:105008003660A660166186617272E2725273C2736C
:105018003275A275127682767267E2675268C26844
:10502800326EA26E126F826F0D61730020303715D9
:10503800004013050540854597000000E78040A91A
:10504800370711208327C7298507232EF72871B72B
:1050580017B3FFFFE70283320111854513050002EC
:1050680097000000E780A092080897F0FFFFE7800C
:105078004070D24737E71B43130737E8B3B7E70257
:10508800371500401307703E4C00130505402314E4
:10509800E100231301002315010023160100C98331
:1050A800FD172312F10097000000E78020903715C4
:1050B80000400546B28513050540231805009700F2
:1050C8000000E780E09CB7E700E01307000237150F
:1050D80000401305054023A6E7108545970000000A
:1050E800E7804099056117B3FFFF6700A32BB70757
:1050F800112003A5C729828017B3FFFFE702032801
:105108000357050183D76500F576FD16758FD98F8E
:1051180001112A842318F50003D5850083D745009B
:1051280003D6A5000357C4008D669386369FC98FA2
:10513800758FD18FD98F2316F4000357440183D775
:10514800C50008081377F7CFD98F231AF4002EC6A5
:1051580097F0FFFFE780E0615245B245814693171B
:1051680015003387A7009041B337F7009355F50131
:10517800AE97931537002E9575838E07BA97B3357A
:10518800B5000A06BE9597500000E780C0ACB78608
:10519800EB519386F651B337D502130640069305B3
:1051A800F06395833386C70213974700B307C5405A
:1051B80092079387270363FBF500930707012314DE
:1051C800F400056117B3FFFF6700C31DB3B7D7022B
:1051D8009583D98F2314F400056117B3FFFF670087
:1051E800631C8357C50091C50967D98F2316F5003D
:1051F800828079777D17F98F2316F500828093F5E1
:10520800F51F2312B5008280035545001375F51F5D
:105218008280035505006D8D3335A000828017B359
:10522800FFFFE702E3139307F5FF894941112A8934
:105238002E8A63EDF90E854537C410209314550066
:105248001304843E2E85269497F0FFFFE780407272
:105258008347840048406388370F854597F0FFFFF0
:10526800E780E0725C4C084C854585495D8D97F078
:10527800FFFFE780E06F0346B4008345D400084889
:10528800CA948A0497F0FFFFE78000E68347D400BA
:1052980008488A85B397F9002310F1008D473EC26C
:1052A800E1473EC42311010097F0FFFFE78020D3B8
:1052B8000346C4008345E400484897F0FFFFE780B1
:1052C800A0E28347E40048481147B397F9008A856C
:1052D8003AC42310F1002311010023120100231303
:1052E800010097F0FFFFE78080CF0840B14702C474
:1052F8008A852315F10052C002C202C69700000039
:10530800E780C0DF0840CE8597000000E780A0ED69
:105318003745172013054530269523100508231116
:105328000508410117B3FFFF6700030785452E8570
:1053380097F0FFFFE780C06337C41020931459002B
:10534800130484401165854597F0FFFFE7804062AC
:1053580011BF83870500ADC317B3FFFFE702430002
:105368001307F5FF133737002E891DEFB7C9102033
:105378009389894003A40900050993F4F70F93055D
:105388000008228597000000E780E0E86DD9A6852F
:10539800228597000000E780C0E683070900F9FB33
:1053A80017B3FFFF670043FF37C710201605130721
:1053B800873EB309E5007DBF828017B3FFFFE70290
:1053C800E3FB1307F5FF894763E5E702B7C710203A
:1053D8009387873E16053E9508419305000297007E
:1053E8000000E78040E33335A00017B3FFFF6700F4
:1053F80063FB3745014093050002130505809700BC
:105408000000E78040E13335A00017B3FFFF6700D5
:1054180063F917B3FFFFE702A3F41307F5FF894702
:10542800AA842E89328B63E7E714B7C710209387C5
:10543800873E131A5500D29783AA0700B749172049
:1054480033049A00938949300A044E949305000264
:10545800568597000000E78000DCAA8756859DCF17
:1054680097000000E78080DA835704080357240870
:10547800850793F7F707E38BE7FC035704089305C1
:10548800000222972300A70056852310F4089700EE
:105498000000E78040D8AA875685F9F333079A00B9
:1054A8000A074E978356270803560708939706015D
:1054B800C183638CC60A8146A94531A003560708F3
:1054C80085066304F60A3306F700034606008507D7
:1054D80093F7F707E314B6FE9308FBFF014601456F
:1054E800B9C6B3079A008A07CE97354363501505A6
:1054F80083D5070803D727086387E50603D7270856
:105508003E978345070003D7270813F8F50F0507CB
:105518001377F7072391E708638765003307A90026
:105528002300070105050506E312D6FC2A99B307EF
:105538009A008A07CE9783D6070803D7270823003F
:105548000900638EE60003D727083E970347070044
:1055580003D7270805071377F7072391E70817B339
:10556800FFFF670063E3014855BF014517B3FFFF1D
:10557800670083E2B74A0140938A0A80131A5500EC
:1055880075BD03D7250083D7050083D6450003D60C
:105598006500D98F03D78500D58F83D6A50003D89A
:1055A800C500D18FD98F03D6E50003570500D58FE5
:1055B8008D6693860604B3E70701758FD18FD98F5F
:1055C8002310F5008357C5017D7783D6050113079E
:1055D800F77FF98F231EF5002318D50082808357A3
:1055E800050091C593E707042310F5008280416701
:1055F8001307F7FBF98F2310F50082802316B500F7
:1056080082800355C5008280035585006D8D333532
:10561800A0008280D0419C4103A88500B776004055
:10562800CC450567D18F791703A60640B3E7070174
:105638003317A700CD8F1347F7FFB397A700718FD4
:10564800D98F23A0F6408280377700408326074011
:105658008547B397A70089C5D58F2320F740828057
:1056680093C7F7FFF58F2320F74082804111B77762
:10567800004002C6938707403EC6B247A107AA97D3
:105688003EC6B2478CC3410182804111B7770040C2
:1056980002C6938707403EC6B247D107AA973EC6BF
:1056A800B2478CC34101828017B3FFFFE70203CDE5
:1056B80011477971630AE50895466307D500456186
:1056C80017B3FFFF670003CE85453705002097F025
:1056D800FFFFE780C02B1145854597F0FFFFE78066
:1056E800202937150140930700024C08130505804F
:1056F800231AF100231B0100231C0100231D0100B4
:10570800231E0100231F010097F0FFFFE780208D73
:1057180089470C1041453ED602D002D202D49700E8
:105728000000E78060EF8545414597000000E7806D
:10573800E0F18145014597000000E78040F54561AB
:1057480017B3FFFF670003C62AC685453705002043
:1057580097F0FFFFE780A0233245854597F0FFFFCC
:10576800E780002137150140C1474C081305058023
:10577800231AF100231B0100231C0100231D010033
:10578800231E0100231F010097F0FFFFE7802085FB
:1057980089470C1001453ED602D002D202D49700A8
:1057A8000000E78060E78545014597000000E78035
:1057B800E0E98145014597000000E78060EB45611D
:1057C80017B3FFFF670003BE17B3FFFFE70203BB72
:1057D80091476309F50095476306F50217B3FFFF84
:1057E800670043BC0567AE8763FEE5029395070132
:1057F800C181014597000000E78080E717B3FFFFEC
:10580800670043BA0567AE8763F9E5029395070118
:10581800C181014597000000E78060E717B3FFFFEB
:10582800670043B89307F7FF93950701C1810145C6
:1058380097000000E780C0E3D1B79307F7FF93957F
:105848000701C181014597000000E78040E4F9B7EE
:1058580017B3FFFFE70283B21307F5FFAD47411106
:10586800AE8463ECE702B7C710209387874613140A
:1058780045003E94B74717200A05938747510347C9
:105888008400AA9790C3894748406314F702854566
:1058980097F0FFFFE780C00D15A0B74717200A054E
:1058A80093874751AA9737C4102090C3130484489C
:1058B8000545854597F0FFFFE780600D0A8597F05D
:1058C800FFFFE78000EB9247854563E49700B3D577
:1058D80097028147C16619A06381D7083E8685076C
:1058E80033D7F5027D17E379D7FE08408A8523125E
:1058F800E1002310C1002311010023130100231428
:10590800010097F0FFFFE780600A0840854597F09F
:10591800FFFFE780E01B08400546B28597F0FFFFD0
:10592800E78000175C44B7E600E085453386F6005B
:1059380013D757002300B6401307070408400A0787
:10594800BA96B397F5009CC297F0FFFFE7808012E4
:10595800410117B3FFFF6700E3A41387F7FF3A86F7
:1059680069B717B3FFFFE70263A11307F5FFAD4758
:105978002A8463E2E704B7C710209314450093878D
:105988008746BE948840814597F0FFFFE780800EE8
:1059980088400146854597F0FFFFE780600F37454F
:1059A80017200A041305455122952320050017B333
:1059B800FFFF6700239FB7C41020938484483705EE
:1059C8000040D1B7357106CF16CDF32230002AC575
:1059D800373501402EC316CB1AC91EC732C1B6DEF1
:1059E800BADCBEDAC2D8C6D6F2D4F6D2FAD0FECE27
:1059F80082E686E48AE28EE012FE16FC1AFA1EF8A7
:105A08002AF62EF432F236F03AEE3EEC42EA46E856
:105A180072E6130505C0854576E47AE27EE097F0E4
:105A2800FFFFE78040093DE137350140130505C018
:105A380097100000E78000BFFA40DA427390320006
:105A4800EA424A43BA432A459A450A46F6566657F1
:105A5800D6574658B658265E965E065FF64F3660AD
:105A6800A660166186617272E2725273C2733275F1
:105A7800A275127682767267E2675268C268326EE1
:105A8800A26E126F826F0D617300203037350140AE
:105A9800130505C0854597F0FFFFE7806003B7470A
:105AA800172093874751D84341D3DC438297ADBF32
:105AB800357106CF16CDF32230002AC52EC316CB7A
:105AC8001AC91EC732C1B6DEBADCBEDAC2D8C6D61B
